:100000000C9434000C943E000C943E000C943E0082
:100010000C943E000C943E000C943E000C943E0068
:100020000C943E000C943E000C943E000C943E0058
:100030000C943E000C943E000C943E000C943E0048
:100040000C943E000C943E000C943E000C943E0038
:100050000C943E000C943E000C943E000C943E0028
:100060000C943E000C943E0011241FBECFEFD8E04C
:10007000DEBFCDBF0E9475000C945D020C940000A1
:10008000CF93DF931F92CDB7DEB7198229B130E04D
:10009000082E02C0359527950A94E2F720FF18C074
:1000A00029B130E0A90102C0559547958A95E2F73C
:1000B00040FF03C089818F5F8983298181E090E0BF
:1000C000223011F080E090E00F90DF91CF91089501
:1000D0002FEF39EF40E0215030404040E1F700C0C1
:1000E000000099819F5F9983DBCF219A80918000E6
:1000F000826880938000809181008D61809381006F
:100100008AE196E0909389008093880089E09DE3DE
:1001100090938700809386008DECC82E8CECD82EAF
:10012000ED2C8DE3F82E27C084E00E944000892B3F
:10013000A1F02DEC3CEC4CEC5DE3C701B6010E9454
:10014000EB01181654F42DEC3CEC4CEC5DE3C701CC
:10015000B6010E94D5006B017C0120E034E244E747
:1001600056E4C701B6010E94F0010E944701709356
:1001700089006093880082E00E944000892BA1F2F0
:1001800020E030E040E85FE3C701B6010E94420191
:1001900087FFCACF2DEC3CEC4CEC5DE3C701B60108
:1001A0000E94D6006B017C01BFCF5058BB27AA2705
:1001B0000E94ED000C94B1010E94A30138F00E944E
:1001C000AA0120F039F49F3F19F426F40C94A00101
:1001D0000EF4E095E7FB0C949A01E92F0E94C2010E
:1001E00058F3BA17620773078407950720F079F46C
:1001F000A6F50C94E4010EF4E0950B2EBA2FA02D79
:100200000B01B90190010C01CA01A0011124FF27C3
:10021000591B99F0593F50F4503E68F11A16F040BE
:10022000A22F232F342F4427585FF3CF46953795BD
:100230002795A795F0405395C9F77EF41F16BA0B82
:10024000620B730B840BBAF09150A1F0FF0FBB1F30
:10025000661F771F881FC2F70EC0BA0F621F731F79
:10026000841F48F4879577956795B795F7959E3FD6
:1002700008F0B0CF9395880F08F09927EE0F979567
:10028000879508950E94760108F481E008950E9400
:10029000CA0188F09F5798F0B92F9927B751B0F04D
:1002A000E1F0660F771F881F991F1AF0BA95C9F7FA
:1002B00014C0B13091F00E94E401B1E008950C94B3
:1002C000E401672F782F8827B85F39F0B93FCCF366
:1002D000869577956795B395D9F73EF49095809577
:1002E000709561957F4F8F4F9F4F0895990F00082C
:1002F000550FAA0BE0E8FEEF16161706E807F907F8
:10030000C0F012161306E407F50798F0621B730B92
:10031000840B950B39F40A2661F0232B242B252B13
:1003200021F408950A2609F4A140A6958FEF811DB6
:10033000811D089597F99F6780E870E060E0089557
:100340009FEF80EC089500240A94161617061806ED
:100350000906089500240A941216130614060506C9
:100360000895092E0394000C11F4882352F0BB0F5A
:1003700040F4BF2B11F460FF04C06F5F7F4F8F4FBD
:100380009F4F089557FD9058440F551F59F05F3FF8
:1003900071F04795880F97FB991F61F09F3F79F0A7
:1003A00087950895121613061406551FF2CF469529
:1003B000F1DF08C0161617061806991FF1CF8695AB
:1003C0007105610508940895E894BB27662777278F
:1003D000CB0197F908950E94760108F48FEF0895F4
:1003E0000E9403020C94B1010E94A30138F00E9404
:1003F000AA0120F0952311F00C949A010C94A0010D
:1004000011240C94E5010E94C20170F3959FC1F381
:10041000950F50E0551F629FF001729FBB27F00DB2
:10042000B11D639FAA27F00DB11DAA1F649F662707
:10043000B00DA11D661F829F2227B00DA11D621F56
:10044000739FB00DA11D621F839FA00D611D221F10
:10045000749F3327A00D611D231F849F600D211DF4
:10046000822F762F6A2F11249F5750409AF0F1F077
:1004700088234AF0EE0FFF1FBB1F661F771F881FE0
:1004800091505040A9F79E3F510580F00C949A017D
:100490000C94E5015F3FE4F3983ED4F3869577959D
:1004A0006795B795F795E7959F5FC1F7FE2B880F86
:0E04B000911D9695879597F90895F894FFCFC2
:00000001FF
