:100000000C9434000C943E000C943E000C943E0082
:100010000C943E000C943E000C943E000C943E0068
:100020000C943E000C943E000C943E000C943E0058
:100030000C943E000C943E000C943E000C943E0048
:100040000C943E000C943E000C943E000C943E0038
:100050000C943E000C943E000C943E000C943E0028
:100060000C943E000C943E0011241FBECFEFD8E04C
:10007000DEBFCDBF0E9462000C949C020C94000075
:10008000FC0129B130E0808102C0359527958A9521
:10009000E2F7217033274FEF89EF90E04150804025
:1000A0009040E1F700C000008181813021F080E0C4
:1000B00090E02183089590E021153105D1F380E08F
:1000C00021830895CF93DF9300D000D0CDB7DEB762
:1000D00084B1836084B98DEC9CECACECBDE3898386
:1000E0009A83AB83BC838091800082688093800078
:1000F000809181008D618093810069817A818B81FB
:100100009C8120E030E040E151E40E942F020E94F7
:100110008601709389006093880089E09DE3909345
:10012000870080938600DD24D39481E024C089B1C8
:1001300084FBEE24E0F8F12C2FEF39EF80E0215022
:1001400030408040E1F700C0000091E0D91609F48A
:1001500040C069817A818B819C8120E034E244E750
:1001600056E40E942F020E948601709389006093DA
:100170008800802FDE2C99B192FB002700F910E057
:100180002FEF39EF90E0215030409040E1F700C070
:100190000000813061F60115110549F669817A8107
:1001A0008B819C8120E030E040E85FE30E94810188
:1001B00087FFBDCF69817A818B819C812DEC3CECDE
:1001C0004CEC5DE30E94150169837A838B839C83E9
:1001D000AECFE114F10409F0BCCF69817A818B8143
:1001E0009C812EEA37E441EE5DE30E942A02181654
:1001F0000CF0AFCF69817A818B819C812DEC3CEC36
:100200004CEC5DE30E94140169837A838B839C83A9
:10021000289A2FEF34E38CE0215030408040E1F702
:1002200000C00000289895CF5058BB27AA270E94ED
:100230002C010C94F0010E94E20138F00E94E901C7
:1002400020F039F49F3F19F426F40C94DF010EF4EA
:10025000E095E7FB0C94D901E92F0E94010258F3C5
:10026000BA17620773078407950720F079F4A6F59B
:100270000C9423020EF4E0950B2EBA2FA02D0B0147
:10028000B90190010C01CA01A0011124FF27591BDB
:1002900099F0593F50F4503E68F11A16F040A22FE1
:1002A000232F342F4427585FF3CF46953795279552
:1002B000A795F0405395C9F77EF41F16BA0B620B51
:1002C000730B840BBAF09150A1F0FF0FBB1F661F98
:1002D000771F881FC2F70EC0BA0F621F731F841FDB
:1002E00048F4879577956795B795F7959E3F08F001
:1002F000B0CF9395880F08F09927EE0F97958795C3
:1003000008950E94B50108F481E008950E94090251
:1003100088F09F5798F0B92F9927B751B0F0E1F0C6
:10032000660F771F881F991F1AF0BA95C9F714C076
:10033000B13091F00E942302B1E008950C942302A1
:10034000672F782F8827B85F39F0B93FCCF38695AF
:1003500077956795B395D9F73EF49095809570950C
:1003600061957F4F8F4F9F4F0895990F0008550F4C
:10037000AA0BE0E8FEEF16161706E807F907C0F02B
:1003800012161306E407F50798F0621B730B840B33
:10039000950B39F40A2661F0232B242B252B21F40D
:1003A00008950A2609F4A140A6958FEF811D811DAD
:1003B000089597F99F6780E870E060E008959FEFE7
:1003C00080EC089500240A941616170618060906EC
:1003D000089500240A9412161306140605060895BB
:1003E000092E0394000C11F4882352F0BB0F40F443
:1003F000BF2B11F460FF04C06F5F7F4F8F4F9F4F83
:10040000089557FD9058440F551F59F05F3F71F004
:100410004795880F97FB991F61F09F3F79F087956B
:100420000895121613061406551FF2CF4695F1DFF4
:1004300008C0161617061806991FF1CF8695710584
:10044000610508940895E894BB2766277727CB01B8
:1004500097F908950E94B50108F48FEF08950E945E
:1004600042020C94F0010E94E20138F00E94E9017E
:1004700020F0952311F00C94D9010C94DF01112484
:100480000C9424020E94010270F3959FC1F3950F12
:1004900050E0551F629FF001729FBB27F00DB11D08
:1004A000639FAA27F00DB11DAA1F649F6627B00D98
:1004B000A11D661F829F2227B00DA11D621F739F81
:1004C000B00DA11D621F839FA00D611D221F749F8F
:1004D0003327A00D611D231F849F600D211D822FD6
:1004E000762F6A2F11249F5750409AF0F1F08823FD
:1004F0004AF0EE0FFF1FBB1F661F771F881F91502A
:100500005040A9F79E3F510580F00C94D9010C94FE
:1005100024025F3FE4F3983ED4F386957795679580
:10052000B795F795E7959F5FC1F7FE2B880F911D53
:0C0530009695879597F90895F894FFCFF1
:00000001FF
