:100000000C9434000C943E000C943E000C943E0082
:100010000C943E000C943E000C943E000C943E0068
:100020000C943E000C943E000C943E000C943E0058
:100030000C943E000C943E000C943E000C943E0048
:100040000C943E000C943E000C943E000C943E0038
:100050000C943E000C943E000C943E000C943E0028
:100060000C943E000C943E0011241FBECFEFD8E04C
:10007000DEBFCDBF0E9475000C94AB000C94000055
:10008000CF93DF931F92CDB7DEB7198229B130E04D
:10009000082E02C0359527950A94E2F720FF18C074
:1000A00029B130E0A90102C0559547958A95E2F73C
:1000B00040FF03C089818F5F8983298181E090E0BF
:1000C000223011F080E090E00F90DF91CF91089501
:1000D0002FEF39EF40E0215030404040E1F700C0C1
:1000E000000099819F5F9983DBCFCF93DF9300D08E
:1000F000CDB7DEB784B1876184B985B1887E85B913
:100100001A82198282E00E944000892B19F08A81AC
:100110008F5F8A8384E00E944000892B19F08A81D6
:1001200081508A8385B1887E85B98A8195B1817035
:10013000892B85B98A8195B18270892B85B98A818D
:1001400095B18470892B85B98A8195B18870880FA3
:0A015000892B85B9D6CFF894FFCFB4
:00000001FF
